:020000040800F2
:10000000E007002089010008FF160008E11500083C
:10001000FD160008850200085D1B000800000000B6
:1000200000000000000000000000000003170008AE
:10003000BF020008000000000117000805170008B3
:10004000A3010008A3010008A3010008A301000800
:10005000A3010008A3010008A3010008A3010008F0
:10006000A3010008A3010008A3010008A3010008E0
:10007000A3010008A3010008A301000889020008E9
:10008000A3010008A3010008A3010008A3010008C0
:10009000A3010008A3010008A3010008A3010008B0
:1000A000A3010008A3010008A3010008A3010008A0
:1000B000A3010008A3010008A3010008A301000890
:1000C000A3010008A3010008A3010008A301000880
:1000D000A3010008511B0008A3010008A3010008A8
:1000E000A3010008A3010008A301000800F002F822
:1000F00000F03AF80AA090E8000C82448344AAF188
:100100000107DA4501D100F02FF8AFF2090EBAE885
:100110000F0013F0010F18BFFB1A43F0010318473B
:100120008C1E0000AC1E0000103A24BF78C878C1B5
:10013000FAD8520724BF30C830C144BF04680C60ED
:10014000704700000023002400250026103A28BF35
:1001500078C1FBD8520728BF30C148BF0B60704739
:100160001FB51FBD10B510BD00F05AF81146FFF7BE
:10017000F7FF01F005FD00F078F803B4FFF7F2FF98
:1001800003BC01F0FCFC0000094880470948004717
:10019000FEE7FEE7FEE7FEE7FEE7FEE7FEE7FEE737
:1001A000FEE7FEE704480549054A064B7047000094
:1001B00067170008ED000008E0010020E0070020BC
:1001C000E0030020E003002070474FF0000200B57C
:1001D000134694469646203922BFA0E80C50A0E86A
:1001E0000C50B1F12001BFF4F7AF090728BFA0E818
:1001F0000C5048BF0CC05DF804EB890028BF40F8E4
:10020000042B08BF704748BF20F8022B11F0804F25
:1002100018BF00F8012B7047704770477047704750
:10022000754600F02BF8AE4605006946534620F0AF
:100230000700854618B020B5FFF7B4FFBDE82040A1
:100240004FF000064FF000074FF000084FF0000B92
:1002500021F00701AC46ACE8C009ACE8C009ACE845
:10026000C009ACE8C0098D46704710B50446AFF32D
:1002700000802046BDE81040FFF77FBF0048704770
:100280007C010020FEE70000014800F08BB8000070
:100290003801002030B590F840500124AC40C56BC7
:1002A0006C60046863604368102B036803D0996036
:1002B0000068C26030BD9A600068C16030BD7047A0
:1002C00072B6FEE710B590F821100022022905D081
:1002D0000421816380F82020012010BD01680B6893
:1002E00023F00E030B6001680B6823F001030B6021
:1002F00090F84030C46B012101FA03F3636080F889
:10030000211080F82020104610BD000010B590F894
:1003100021100024022903D00421816301243DE03F
:1003200001680A6822F00E020A6001680A6822F079
:1003300001020A601A4A0168914201D1012121E0BB
:10034000174A1432914201D110211BE0144A28327D
:10035000914201D1891515E0114A3C32914201D1F7
:1003600089140FE00E4A5032914202D14FF480318D
:1003700008E00B4A6432914202D14FF4801101E04F
:100380004FF08071064A083A5160012180F821102F
:10039000002180F82010416B01B18847204610BD34
:1003A000080002402DE9F05FC16B0C6801680B6822
:1003B000D0F840C0042202FA0CF2494DDFF824A123
:1003C000494E4A4FDFF828B1DFF828E122422CD00D
:1003D0005A072AD50A68920603D40A6822F0040252
:1003E0000A600168A94201D1042219E0514501D1F6
:1003F000402215E0B14202D14FF4806210E0B942D0
:1004000002D14FF480420BE0594502D14FF48022D3
:1004100006E0714502D14FF4800201E04FF08062A6
:100420002F4908394A60C16A3BE04FF0020808FAD8
:100430000CF818EA040F4FF000094FF0010235D014
:100440005FEA837832D50B689B0605D40B6823F0EE
:100450000A030B6080F821200168A94201D1022221
:1004600019E0514501D1202215E0B14202D14FF4EB
:10047000007210E0B94202D14FF400520BE059452E
:1004800002D14FF4003206E0714502D14FF4001260
:1004900001E04FF00072124908394A6080F820905C
:1004A000816A00291AD0BDE8F05F0847082505FADF
:1004B0000CF5254212D01B0710D50B6823F00E0354
:1004C0000B6090F84010C36B02FA01F1596082632F
:1004D00080F8212080F82090016BE2E7BDE8F09FD2
:1004E000080002401C00024030000240440002406C
:1004F000580002406C00024030B528B308C81349C8
:1005000014221944B1FBF2F18900C16310498163DF
:10051000022141771A6843F6F0718A43D0E900144A
:100520002143D0E902452C43214304692143446916
:100530002143846921431143196000214163012251
:1005400042770177084630BD012030BDF8FFFDBF7E
:100550000000024070B5044690F8200000250128F4
:100560000CD0012084F8200094F821600020012E96
:1005700006D084F820000225284670BD022070BDF8
:10058000022684F82160A0632068066826F0010630
:1005900006602046FFF77EFEE06A002820680168BA
:1005A00002D041F00E0106E021F004010160206854
:1005B000016841F00A0101602068016841F0010111
:1005C0000160D9E770B5044600F0FEF80546601CEE
:1005D00002D004480078044400F0F6F8401BA04222
:1005E000FAD370BD140000202DE9F84FDFF8B89160
:1005F0000024A9F1040B23460F2709F1040AABF1EB
:10060000040EC9E00125A5402A40AA427DD1674ECB
:10061000D1F804C0ACEB0608B44532D014DCBCF110
:10062000030F3AD009DCBCF1000F2AD0BCF1010F56
:100630001CD0BCF1020F31D11DE0BCF1110F17D05D
:10064000BCF1120F2AD119E0B8F5881F19D006DCC9
:10065000B8F5803F15D0B8F5801F1FD111E0B8F56F
:10066000001F0ED0B8F5041F18D10AE0CB6815E0C2
:10067000CB681B1D12E0CB6808330FE0CB680C334E
:100680000CE08B682BB1012B4FF0080303D04561C0
:1006900004E0042302E0056100E00023FF2A01D802
:1006A000064601E000F104064FEA840501D9A5F1F0
:1006B0002005D6F8008007FA05FC28EA0C0803FAA2
:1006C00005F548EA0508C6F800804D68ED0062D5DA
:1006D000374DAE6946F00106AE61AD6924F0030600
:1006E00005F001050095334D06EB050CDCF80850CC
:1006F000A607360F07FA06F825EA0805DFF8B880DE
:10070000404503D14FF0000817E044E0DFF8AC802B
:10071000404502D14FF001080FE0DFF8A4804045CA
:1007200002D14FF0020808E0DFF89880404502D17E
:100730004FF0030801E04FF0040808FA06F848EA11
:100740000508CCF808804D68D9F80060ED024D46E8
:1007500001D5164300E096432E604D68DAF800603C
:10076000AD02554601D5164300E096432E604D6814
:10077000DBF80060AD035D4601D5164300E096430B
:100780002E604D68DEF80060ED03754601D5164316
:1007900000E096432E60641C0D682A46E5407FF415
:1007A00031AFBDE8F88F00000804014000001110CF
:1007B000001002400000014000080140000C014010
:1007C000001001400014014001488068704700009B
:1007D0001400002070B5040025D094F83D000025D9
:1007E00020B984F83C50204600F0B8F8242084F862
:1007F0003D002068016821F0010101602068016866
:1008000041F4004101602068016821F40041016069
:1008100000F000FA4D4A6168914201D84C4900E06D
:100820004C49884201D2012070BD4B492368B0FB7E
:10083000F1F15E6826F03F060E435E606368934206
:1008400006D94FF4967359434FF47A73B1FBF3F121
:100850002368491C1E6A26F03F063143196261680D
:10086000914210D84900401EB0FBF1F2521CC2F375
:100870000B02042A01D2042022E0B0FBF1F0401C5C
:10088000C0F30B001CE0A268F2B301EBC10303EB61
:100890000116431EB3FBF6F35B1C43F480431B05B8
:1008A00049D092B301EBC10202EB0111401EB0FB33
:1008B000F1F0401CC0F30B0040F4804040F40040D5
:1008C0002168CA694CF6FF739A431043C861D4E9A2
:1008D000071001432068026822F0C0021143016042
:1008E000D4E9030101432068826848F2FF339A4348
:1008F00011438160D4E9050108432168CA6822F0E8
:10090000FF021043C86001E00EE016E020680168B5
:1009100041F0010101602564202084F83D00256339
:1009200084F83E50002070BD01EB4106431EB3FB2E
:10093000F6F35B1CB3E70120C2E701EB4101401E67
:10094000B0FBF1F0401CC0F30B00B7E7A08601003C
:1009500080841E0000093D0040420F0010B586B0A3
:100960000021009101910291039100680F49884292
:100970001AD10F4CA06940F00800A061A069694637
:1009800000F008000490C020009012200190032085
:1009900003900848FFF728FEE06940F40010E0618A
:1009A000E06900F40010049006B010BD005400404F
:1009B00000100240000C0140024881680278114496
:1009C0008160704714000020074810B5016841F0AD
:1009D00010010160032000F075F80F2000F006F808
:1009E00000F024F8002010BD0020024070B50D4D2D
:1009F00004464FF47A712878B1FBF0F00A4909688F
:100A0000B1FBF0F000F0DCFA48B9102C07D200225C
:100A10002146501E00F036F800206C6070BD0120A9
:100A200070BD000014000020200000200C4808B514
:100A3000816941F001018161816901F00101009149
:100A4000C16941F08051C161C06900F080500090DF
:100A50000448416821F0E06141F00071416008BD47
:100A60000010024000000140002809DB00F01F02D6
:100A7000012191404009800000F1E020C0F8001100
:100A800070470000F0B40E4B1B680C46C3F3022302
:100A9000C3F10705042D00D90425191D072901D22A
:100AA000002300E0DB1E012606FA05F1491E214065
:100AB00099409E40761E16403143F0BC01F04FB87D
:100AC0000CED00E0064900F0070208684FF6FF034E
:100AD000184040EA0220034A1043086070470000B3
:100AE0000CED00E00000FA052DE9F0470F46050087
:100AF00061D0434E306800F00700B84209D2306838
:100B000020F0070038433060306800F00700B8423A
:100B100051D128683B4C810712D5400703D5606846
:100B200040F4E06060602878000703D5606840F416
:100B3000605060606068A96820F0F0000843606061
:100B40002878C00728D06868012810D021680228BA
:100B500010D0890700292EDA616821F003010143D2
:100B60006160FFF731FE804641F288390DE021686F
:100B70008903EFE78901EDE7FFF726FEA0EB080107
:100B8000494502D90320BDE8F0876068696800F034
:100B90000C00B0EB810FEFD1306800F00700B842D5
:100BA0000BD9306820F0070038433060306800F01F
:100BB0000700B84201D00120E5E72878400705D5B5
:100BC0006068E96820F4E060084360602878000706
:100BD00006D56068296920F4605040EAC100606071
:100BE00000F038F86168084AC1F30311515CC8404D
:100BF0000649086006480068FFF7F8FE0020C2E7D3
:100C00000020024000100240941F00082000002035
:100C1000180000200448054900684968044AC1F3E7
:100C20000221515CC84070472000002000100240A3
:100C3000A41F00080448054900684968044AC1F334
:100C4000C221515CC84070472000002000100240C3
:100C5000A41F00080E4A51680E4801F00C03042B33
:100C600011D0082B0FD10C48C1F38343C903C05CDA
:100C70000AD55168084AC1F34041921E515C054AA9
:100C80005043B0FBF1F070470449484370470000FF
:100C90000010024000127A00841F000800093D0085
:100CA0002DE9F84F040070D02078C04DC00749D01E
:100CB0006868C0F38100012807D06868C0F381002C
:100CC000022809D16868C00306D52868800339D591
:100CD00060680028E7D035E06068B0F5803F0BD051
:100CE00010B1B0F5A02F11D0286820F48030286012
:100CF000286820F4802002E0286840F480302860D2
:100D0000606890B1FFF760FD06460AE0286840F48D
:100D100080202860F0E700BFFFF756FD801B6428A5
:100D200073D828688003F7D50CE0FFF74DFD064621
:100D300005E000BFFFF748FD801B6428F0D8286855
:100D40008003F7D420789A4E80074FF001094FF0C6
:100D5000000839D5686810F00C0F07D06868C0F338
:100D60008100022809D16868C00306D4286880077A
:100D700014D52069012808D110E02069B0B1C6F867
:100D80000090FFF721FD074605E00AE1FFF71CFD93
:100D9000C01B0228C4D828688007F7D52868616975
:100DA00020F0F80040EAC10028600DE0C6F800809D
:100DB000FFF70AFD074604E0FFF706FDC01B022807
:100DC00023D828688007F7D4207800072CD57948E5
:100DD000A169D9B1C0F80090FFF7F6FC074604E01E
:100DE000FFF7F2FCC01B02280FD8686A8007F7D50E
:100DF00071484FF4FA510068B0FBF1F0009000BF69
:100E00000098411E0091FAD20EE080E0C0F8008008
:100E1000FFF7DAFC074604E0FFF7D6FCC01B022808
:100E200075D8686A8007F7D42078400760D5E869EC
:100E30000027C00008D4E86940F08050E861E86904
:100E4000012700F0805000905C480168C90513D468
:100E50000168834641F480710160FFF7B5FC82466A
:100E600006E000BFFFF7B0FCA0EB0A0064284ED8F4
:100E7000DBF80000C005F5D5E06801280AD008B10C
:100E8000052813D0286A20F001002862286A20F083
:100E9000040002E0286A40F001002862E06841F2A4
:100EA000883B98B1FFF790FC82460BE0286A40F03F
:100EB00004002862EEE700BFFFF786FCA0EB0A0102
:100EC00059455AD8286A8007F6D50CE0FFF77CFC14
:100ED000824605E0FFF778FCA0EB0A0159454CD8A3
:100EE000286A8007F6D41FB1E86920F08050E861D5
:100EF000E06988B36968C1F38101022944D00228FE
:100F0000C6F8608004D0FFF75FFC044638E034E0A8
:100F1000FFF75AFC074604E0FFF756FCC01B022807
:100F20002BD828688001F7D4206AB0F5803F05D11E
:100F30006868A16820F4003008436860D4E90801BB
:100F40000843696821F4741108436860C6F860902A
:100F5000FFF73AFC044606E025E000BFFFF734FC4B
:100F6000001B022809D828688001F7D51BE000BFC4
:100F7000FFF72AFC001B022802D90320BDE8F88FE6
:100F800028688001F4D40EE00128F7D06868226A4E
:100F900000F48031914204D1616A00F470108842FB
:100FA00001D00120EAE70020E8E70000001002403D
:100FB00000004242800442422000002000700040B5
:100FC00010B5401EB0F1807F01D3012010BD4FF05D
:100FD000E02460610F21601700F0C1FD0020A061D6
:100FE00007202061002010BD70477047F8B50168E8
:100FF00004460868CA684B6910F00F0F4FF00005EF
:1010000059D003F0010602F49077374365D0C10749
:1010100005D0D10503D5616C41F001016164410740
:1010200005D5D90703D0616C41F0020161648107E5
:1010300005D5D90703D0616C41F004016164010753
:1010400007D502F02001314303D0616C41F0080163
:101050006164616C00293AD0800604D5900602D5FF
:10106000204600F035FC20684069616CC0F38010B8
:10107000090700D460B3204600F0F5FB2068406902
:10108000400621D52068143050E8001F21F04001AF
:1010900040E80012002AF5D1E06BA8B16D49416328
:1010A000E06BFFF733F9002811D0E06B416B01B022
:1010B000BDE8F040084783060FD593060DD52046BE
:1010C000BDE8F84000F004BC2046FFF78EFFF8BDF5
:1010D0002046FFF78AFF6564F8BD266B2023012EAA
:1010E0007CD1C6067AD5D60678D5086848680090BF
:1010F00048694FF00206400640D5E16B0868406839
:101100000004000CE8D0A28D8242E5D9E085886910
:1011100020282DD020680C3050E8001F21F4807169
:1011200040E80012002AF5D12068143050E8001F72
:1011300021F0010140E80012002AF5D120681430A6
:1011400050E8001F21F0400140E80012002AF5D1CC
:1011500084F84230256320680C3050E8001F21F0ED
:10116000100140E80012002AF5D1E06BFFF7AAF861
:101170006663A08DE18D401A81B22AE0A08DE18DD9
:10118000401A81B2E08D0028A6D00029A4D02268A0
:101190000C3252E8000F20F4907042E80007002F54
:1011A000F5D12068143050E8002F22F0010240E809
:1011B0000027002FF5D184F84230256320680C30D9
:1011C00050E8002F22F0100240E80023002BF5D158
:1011D00066632046FFF708FFF8BDFFE705062BD53D
:1011E000150629D594F841002128F5D1A068B0F55D
:1011F000805F01D12069B0B1206A411C2162216861
:1012000000784860E08C401E0004000CE084E3D1CC
:101210002068C16821F08001C1602068C16841F088
:101220004001C160D8E7206A0088C0F30800486028
:10123000206A801C2062E5E74006CDD55006CBD55C
:10124000CA68204622F04002CA6084F8413000F0AB
:10125000C6F9C1E76917000870B5040004D094F816
:101260004100002510B106E0012070BD84F8405017
:10127000204600F023F8242084F841002068C1684B
:1012800021F40051C160204600F084FB2068016910
:1012900021F4904101612068416921F02A014161F6
:1012A0002068C16841F40051C1606564202084F861
:1012B000410084F842006563002070BDF0B585B040
:1012C000002400940194029403940646344F03686A
:1012D000344902200322344DBB423CD18B6943F494
:1012E00080438B618B6903F4804304938B6943F0E3
:1012F00004038B618969039201F0040104910102E6
:10130000CDE9001069462846FFF76EF92815CDE9AA
:101310000004694628460294FFF766F9244D2348E5
:10132000C5E900048020C5E902402C616C61AC6114
:101330002846EC61FFF7E0F808B1FEF7C1FFF5635E
:101340000022114625206E62FFF79CFB2520FFF747
:101350008BFB05B0F0BD174EB342FAD1CB6943F415
:101360000033CB61CB6903F4003304938B6943F002
:1013700004038B618969039201F004010491042143
:10138000CDE9001069462846FFF72EF90820CDE97F
:101390000004694628460294FFF726F9D9E70000C1
:1013A000003801400010024000080140580002408F
:1013B000380100200044004090F84230202B01D03A
:1013C0000220704721B11AB10023036300F03EBB35
:1013D000012070472DE9F047012253495348FFF798
:1013E000EBFF5148524C401E00260178427862546F
:1013F000491CC9B201702278552A02D00670BDE896
:10140000F08780460B29FAD3494D60780C356FF090
:101410000E07512804D052282AD0532827D154E04F
:10142000B4F9020000F01AFC3A4600F064FD042210
:1014300000F061FD00F0D8FBE860B4F9040000F0B2
:101440000DFC3A4600F057FD042200F054FD00F078
:10145000CBFB2861B4F9060000F000FC3A4600F02E
:101460004AFD042200F047FD00F0BEFB686158E031
:10147000B4F9020000F0F2FB3A4600F03CFDDFF860
:10148000B49000224B4600F001FC00F0ADFBA861D7
:10149000B4F9040000F0E2FB3A4600F02CFD002213
:1014A0004B4600F0F3FB00F09FFBE861B4F9060047
:1014B00000F0D4FB3A4600F01EFD00224B4600F03F
:1014C000E5FB00F091FB28622BE0B4F9020000F08C
:1014D000C5FB3A4600F00FFDDFF85C9000224B465A
:1014E00000F0D4FB00F080FB2860B4F9040000F0A9
:1014F000B5FB3A4600F0FFFC00224B4600F0C6FB6D
:1015000000F072FB6860B4F9060000F0A7FB3A46F1
:1015100000F0F1FC00224B4600F0B8FB00F064FB49
:10152000A86088F800606AE701000020A800002099
:101530002400002000409F400080664070472DE955
:10154000F843044690F84100984616460D46202878
:1015500002D00220BDE8F88385B17EB1002060642E
:10156000212084F84100FFF72FF9A6848146E68404
:10157000A0682027B0F5805F02D003E00120E9E7F2
:10158000206910B12E4600250EE000260CE08021D7
:10159000204600F0A3FAA8B9C6B116F8010B2168DD
:1015A0004860E08C401EE084E08C4B464FF0000227
:1015B000CDF800800028EAD14FF04001204600F02D
:1015C0008DFA40B184F841700320C3E735F8020B6F
:1015D000C0F30800E3E784F841700020BAE77047E1
:1015E000FEE70000094808B5416941F00101416189
:1015F0004069002200F00100009011460F20FFF723
:1016000041FABDE808400F20FFF72EBA0010024053
:101610000D4808B5816941F020018161816901F0BF
:1016200020010091816941F004018161816901F02B
:1016300004010091816941F008018161806900F035
:101640000800009008BD0000001002400D4810B5D1
:101650000B4901600C49416000214FF480428160D8
:10166000C0E9031241618161C1610162FFF7B2F813
:10167000002803D0BDE81040FEF722BE10BD0000D8
:101680000054004054000020801A06000C4810B599
:101690000A4901604FF416514160002181600C221B
:1016A000C160C0E904128161C161FFF7D5FD002866
:1016B00003D0BDE81040FEF703BE10BD0038014066
:1016C000A80000200C4810B50A4901604FF4E13130
:1016D0004160002181600C22C160C0E90412816177
:1016E000C161FFF7B9FD002803D0BDE81040FEF747
:1016F000E7BD10BD00440040F0000020FEE7FEE71B
:1017000070477047FFF758B930B58FB02821684649
:10171000FEF75BFD14210AA8FEF757FD012108041E
:10172000CDE900100024029402250491CDE9075070
:101730004FF4E01009906846FFF7B2FA08B172B6AC
:10174000FEE70F20CDE90A054FF48060CDE90C409B
:1017500002210AA80E94FFF7C7F9002801D072B63B
:10176000FEE70FB030BD704710B5406A0021C1855B
:10177000C184FFF73AFC10BD70B5446A2068406927
:1017800094F84110C0F3C0100025212904D118B1EC
:10179000E584204600F08EF82068406994F84210F5
:1017A000C0F38010222904D118B1E585204600F04D
:1017B0005AF8606C40F0100060642046FFF715FC9A
:1017C00070BD10B50146406A096809684FF0000213
:1017D00089062ED4C28501680C3151E8003F23F4FC
:1017E000807341E80034002CF5D10168143151E8D0
:1017F000003F23F0010341E80034002CF5D10168DB
:10180000143151E8003F23F0400341E80034002C3C
:10181000F5D1202180F84210016B012909D101681E
:101820000C3151E8003F23F0100341E80034002C54
:10183000F5D14263016B012902D0FFF7CBFD10BD4A
:10184000818DFFF7D1FB10BD10B5406A01214163C6
:10185000016B012902D0FFF771FE10BD818D49088F
:10186000FFF7C2FB10BD01680C3151E8002F22F4D4
:10187000907241E80023002BF5D10168143151E842
:10188000002F22F0010241E80023002BF5D1016B6B
:10189000012909D101680C3151E8002F22F0100212
:1018A00041E80023002BF5D1202180F842100021CF
:1018B0000163704701680C3151E8002F22F0C0022B
:1018C00041E80023002BF5D1202180F8411070471A
:1018D00008B590F84210222901D0022008BD826884
:1018E0004FF480539A4201D1016921B1816A9A4231
:1018F0001BD04AB10AE00268816A5268C2F308024A
:101900000A80816A891C08E0026972B10268526823
:1019100002F07F020A70816A491C8162C18D491EF2
:101920000904090CC18503D01BE002685268F1E785
:101930000168CA6822F02002CA600168CA6822F4FD
:101940008072CA6001684A6922F001024A6120215E
:1019500080F8421000214163026B012A03D0FFF797
:1019600039FD002008BD016301680C3151E8002FEA
:1019700022F0100241E80023002BF5D101680A682B
:10198000D20602D50A6849680091818DFFF72CFBC9
:10199000E7E7000070B5044600680169E26821F4D9
:1019A0004051114301612169A068084361690843FE
:1019B0002168CA6841F20C639A430243CA602068F6
:1019C0004169A26921F44071114341611E492068B7
:1019D000884202D1FFF72EF901E0FFF71BF900EB77
:1019E000C00101EB0012606864218000B2FBF0F3DB
:1019F000B3FBF1F36FF018067343B2FBF0F5B2FBE3
:101A0000F0F605EB8305322303EB0515B5FBF1F585
:101A1000B6FBF1F605F0F00505EB0615B2FBF0F6A6
:101A2000B2FBF0F0B0FBF1F06FF01802504306EBA0
:101A3000800003EB0010B0FBF1F0216800F00F0014
:101A40002844886070BD00000038014038B58162CC
:101A500004468285002013466064222284F84220D6
:101A6000E56B1B4AAA62E56B1A4AEA62E56B1A4A01
:101A70002A63E26B50630A462168E06B091DFEF79A
:101A800069FD2068016840680090206948B12068BD
:101A90000C3050E8001F41F4807140E80012002A29
:101AA000F5D12068143050E8001F41F0010140E8F2
:101AB0000012002AF5D12068143050E8001F41F0D0
:101AC000400140E80012002AF5D1002038BD000096
:101AD000C317000849180008791700082DE9F843D2
:101AE000984617460D460446089E24E0701C22D0F6
:101AF000FEF76AFEA0EB0800B0421AD8CEB120680B
:101B0000C168490717D5802D15D0402D13D0016825
:101B1000C94309070FD4016800254068009020469A
:101B2000FFF7A1FE0820606484F840500120BDE862
:101B3000F8830320FBE72068006835EA000004D042
:101B40000020B842D2D00020F1E70120F9E70000E0
:101B50000148FFF74BBA0000A8000020FEE7090784
:101B6000090E002804DB00F1E02080F80014704723
:101B700000F00F0000F1E02080F8141D704770475E
:101B8000FEF722FFFFF7C0FDFFF742FDFFF72AFD3A
:101B9000FFF75CFDFFF77AFDFFF794FD00F002F818
:101BA000FEE7000010B5FF2305220D490D48FFF7A1
:101BB000C6FCC820FEF706FD0949FF230522491D82
:101BC0000848FFF7BCFC4FF47A60FEF7FBFC0449C1
:101BD000FF230522BDE810400A310248FFF7AFBCE1
:101BE00002000020A800002021F00042A2F1605273
:101BF000B2F5801F01F0004328BFD2F17F6C0BD9F2
:101C00005FEA001C43EAC20242EB507018BF704703
:101C100028BF20F001007047B2F5801FBCBF1846F6
:101C200070474FEA410C1CF5001F02D2084600F035
:101C30002BB970B500F0D4F800000089FFF7F6BFAB
:101C40004FF00040A0F580007047000002494FF0BF
:101C5000000000F01EB900BF0000F87F10F0004245
:101C600048BF4042B0FA80F310FA03F10AD0C3F142
:101C70001D0303F580634FEA415002EB035202EB70
:101C8000D12170474FF0000070470000DFF848C1D5
:101C900070B51CEA111E1EBF1CEA13159EEA0C0F3C
:101CA00095EA0C0F00F06F8081EA030423EA4C13DD
:101CB0004EEAD47E21EA4C1141F4801143F48013A2
:101CC000AE44A1FB024CA0FB0365AEF17F7E36194A
:101CD00055EB0C05A1FB034C4CF10003A0FB021CCF
:101CE00016EB0C06654153F10003094218BF46F09C
:101CF000010613F4007F0BD14FEA03314FEA0530A0
:101D0000340341EA155140EA16506FF003020AE02D
:101D10004FEAC3214FEAC520F40241EA555140EA97
:101D200056506FF0020202EB2E4201EB025585EA9B
:101D3000CE710AD05FEA440C18BF24F0004450F181
:101D4000000041F1000120EAD47040F2FE7C6245BF
:101D500000D270BDA84214BF4FF080444FF0404401
:101D6000002E08BF0024BEF1806FA8BFA1F1C041C2
:101D7000BDE8704080F282804FF0000001F1C04168
:101D800001F0004170479EEA0C0F0CEA131518BFD2
:101D900095EA0C0F06D04FF0000081EA030E0EF01A
:101DA000004170BD00F01CF88900013E00F007B84A
:101DB00000F009B84FEA430C5FEA5C5C08D081EAA6
:101DC000030100F05BB84FEA410C5FEA5C5CF6D1BE
:101DD0004FF00000014970470000FF070000F87F46
:101DE0000EF1020E2EF0030E5EF8046B364205D49F
:101DF000012A43EB030515F5001F12D8012841EB1A
:101E0000010C1CF5001F0CD80ED14FEAD17C15F542
:101E1000001F0CEB4C0C0CF1020C08BF4CEBD37CFC
:101E200004E04FF0080C01E04FEAD37C0CEB4C05CA
:101E300026FA05F606F00706B6F1040C06D20EEBFC
:101E4000860CBDE870404CF0010C6047DFE80CF0F8
:101E5000090B02024FF000414FF00000A1F50021F4
:101E600070BD19461046012851EB010418BFD4F586
:101E7000001484BF002001F0004170BD0808A0F5E7
:101E800000114FEA31017047FF2141EAD050C005EF
:101E900070470CF00F03092B08BF082000F0598091
:101EA0000A2B0BD0082B18BF704708BF1CF0400F3F
:101EB0000AD04FF000004FF0000170471CF0400FB7
:101EC00018BF4FF0004070471CF0100F08D020F0F2
:101ED000704300F07F4242EAD3014FEA43707047FB
:101EE00000F0604021F07F4242EA000201F07F40B2
:101EF00040EA727070474FF0FF0C4CF4E06C1CEA43
:101F000011531CBF9CEA030C9445C2BFDA4201EB9B
:101F100002517047002B0DD0BCF1000F0FD0002AEA
:101F200001F00041A4BF41F0E04141F07F614FF07A
:101F30000000704701F000414FF00000704750EA88
:101F400001334FF09B0C18BF4CF0806C7FF47EAED9
:101F500070471CF4801F11D01CF4E02F03D06FEAEF
:101F6000CC31490070474FF04050EFF3008222F02F
:101F7000704242EA000282F3008870474FF000008E
:101F80007047010202030405060708090A0B0C0D3D
:101F90000E0F1010000000000000000001020304FA
:101FA000060708090000000001020304CC1F000816
:101FB000000000202400000028010008F01F000895
:101FC00024000020BC070000440100080000FFAA14
:101FD0006988B5FFAA010400FFAA00000000000004
:101FE00001000000100000000000000000127A0054
:04000005080000ED02
:00000001FF
